{
  "_format": "hh-sol-artifact-1",
  "contractName": "Router",
  "sourceName": "contracts/Router.sol",
  "abi": [
    {
      "inputs": [
        {
          "internalType": "address",
          "name": "_linkRouter",
          "type": "address"
        },
        {
          "internalType": "address",
          "name": "_linkToken",
          "type": "address"
        },
        {
          "internalType": "uint64",
          "name": "_chainSelector",
          "type": "uint64"
        },
        {
          "internalType": "uint32",
          "name": "_chainId",
          "type": "uint32"
        }
      ],
      "stateMutability": "nonpayable",
      "type": "constructor"
    },
    {
      "inputs": [
        {
          "internalType": "uint64",
          "name": "destinationChainSelector",
          "type": "uint64"
        },
        {
          "internalType": "address",
          "name": "protocolAddress",
          "type": "address"
        }
      ],
      "name": "ChainNotAllowlisted",
      "type": "error"
    },
    {
      "inputs": [
        {
          "internalType": "address",
          "name": "owner",
          "type": "address"
        },
        {
          "internalType": "address",
          "name": "target",
          "type": "address"
        },
        {
          "internalType": "uint256",
          "name": "value",
          "type": "uint256"
        }
      ],
      "name": "FailedToWithdrawEth",
      "type": "error"
    },
    {
      "inputs": [
        {
          "internalType": "address",
          "name": "router",
          "type": "address"
        }
      ],
      "name": "InvalidRouter",
      "type": "error"
    },
    {
      "inputs": [],
      "name": "NoTransactionInBridgedData",
      "type": "error"
    },
    {
      "inputs": [
        {
          "internalType": "uint256",
          "name": "currentBalance",
          "type": "uint256"
        },
        {
          "internalType": "uint256",
          "name": "calculatedFees",
          "type": "uint256"
        }
      ],
      "name": "NotEnoughBalance",
      "type": "error"
    },
    {
      "inputs": [],
      "name": "NothingToWithdraw",
      "type": "error"
    },
    {
      "anonymous": false,
      "inputs": [
        {
          "indexed": true,
          "internalType": "bytes32",
          "name": "messageId",
          "type": "bytes32"
        },
        {
          "indexed": true,
          "internalType": "uint64",
          "name": "destinationChainSelector",
          "type": "uint64"
        },
        {
          "indexed": false,
          "internalType": "address",
          "name": "receiver",
          "type": "address"
        },
        {
          "indexed": false,
          "internalType": "bytes",
          "name": "data",
          "type": "bytes"
        },
        {
          "indexed": false,
          "internalType": "address",
          "name": "token",
          "type": "address"
        },
        {
          "indexed": false,
          "internalType": "uint256",
          "name": "amount",
          "type": "uint256"
        },
        {
          "indexed": false,
          "internalType": "address",
          "name": "feeToken",
          "type": "address"
        },
        {
          "indexed": false,
          "internalType": "uint256",
          "name": "fees",
          "type": "uint256"
        }
      ],
      "name": "BridgeMessageSent",
      "type": "event"
    },
    {
      "anonymous": false,
      "inputs": [
        {
          "indexed": false,
          "internalType": "bytes32",
          "name": "messageId",
          "type": "bytes32"
        },
        {
          "indexed": false,
          "internalType": "uint64",
          "name": "sourceChainSelector",
          "type": "uint64"
        },
        {
          "indexed": false,
          "internalType": "address",
          "name": "senderContract",
          "type": "address"
        },
        {
          "indexed": true,
          "internalType": "uint256",
          "name": "transactionId",
          "type": "uint256"
        },
        {
          "indexed": true,
          "internalType": "address",
          "name": "dstToken",
          "type": "address"
        },
        {
          "indexed": false,
          "internalType": "uint256",
          "name": "tokenAmount",
          "type": "uint256"
        }
      ],
      "name": "BridgeSuccess",
      "type": "event"
    },
    {
      "anonymous": false,
      "inputs": [
        {
          "indexed": true,
          "internalType": "bytes32",
          "name": "messageId",
          "type": "bytes32"
        },
        {
          "indexed": true,
          "internalType": "uint64",
          "name": "sourceChainSelector",
          "type": "uint64"
        },
        {
          "indexed": false,
          "internalType": "address",
          "name": "sender",
          "type": "address"
        },
        {
          "indexed": false,
          "internalType": "bytes",
          "name": "data",
          "type": "bytes"
        }
      ],
      "name": "MessageReceived",
      "type": "event"
    },
    {
      "anonymous": false,
      "inputs": [
        {
          "indexed": true,
          "internalType": "address",
          "name": "from",
          "type": "address"
        },
        {
          "indexed": true,
          "internalType": "address",
          "name": "to",
          "type": "address"
        }
      ],
      "name": "OwnershipTransferRequested",
      "type": "event"
    },
    {
      "anonymous": false,
      "inputs": [
        {
          "indexed": true,
          "internalType": "address",
          "name": "from",
          "type": "address"
        },
        {
          "indexed": true,
          "internalType": "address",
          "name": "to",
          "type": "address"
        }
      ],
      "name": "OwnershipTransferred",
      "type": "event"
    },
    {
      "inputs": [],
      "name": "acceptOwnership",
      "outputs": [],
      "stateMutability": "nonpayable",
      "type": "function"
    },
    {
      "inputs": [
        {
          "internalType": "uint32",
          "name": "_chainId",
          "type": "uint32"
        },
        {
          "internalType": "uint64",
          "name": "_chainSelector",
          "type": "uint64"
        },
        {
          "internalType": "address",
          "name": "_protocolAddress",
          "type": "address"
        }
      ],
      "name": "allowlistChainAndProtocolAddress",
      "outputs": [],
      "stateMutability": "nonpayable",
      "type": "function"
    },
    {
      "inputs": [
        {
          "internalType": "uint32",
          "name": "chainId",
          "type": "uint32"
        }
      ],
      "name": "allowlistedChain",
      "outputs": [
        {
          "internalType": "address",
          "name": "protocolAddress",
          "type": "address"
        },
        {
          "internalType": "uint64",
          "name": "ccipChainselector",
          "type": "uint64"
        },
        {
          "internalType": "enum DataTypes.ChainDataStatus",
          "name": "status",
          "type": "uint8"
        }
      ],
      "stateMutability": "view",
      "type": "function"
    },
    {
      "inputs": [
        {
          "internalType": "address",
          "name": "",
          "type": "address"
        },
        {
          "internalType": "uint64",
          "name": "",
          "type": "uint64"
        }
      ],
      "name": "allowlistedProtocolAddress",
      "outputs": [
        {
          "internalType": "bool",
          "name": "",
          "type": "bool"
        }
      ],
      "stateMutability": "view",
      "type": "function"
    },
    {
      "inputs": [
        {
          "internalType": "address",
          "name": "_recipient",
          "type": "address"
        },
        {
          "internalType": "uint256",
          "name": "_amount",
          "type": "uint256"
        },
        {
          "internalType": "address",
          "name": "_token",
          "type": "address"
        },
        {
          "internalType": "uint32",
          "name": "_dstChainId",
          "type": "uint32"
        }
      ],
      "name": "board",
      "outputs": [],
      "stateMutability": "nonpayable",
      "type": "function"
    },
    {
      "inputs": [
        {
          "components": [
            {
              "internalType": "bytes32",
              "name": "messageId",
              "type": "bytes32"
            },
            {
              "internalType": "uint64",
              "name": "sourceChainSelector",
              "type": "uint64"
            },
            {
              "internalType": "bytes",
              "name": "sender",
              "type": "bytes"
            },
            {
              "internalType": "bytes",
              "name": "data",
              "type": "bytes"
            },
            {
              "components": [
                {
                  "internalType": "address",
                  "name": "token",
                  "type": "address"
                },
                {
                  "internalType": "uint256",
                  "name": "amount",
                  "type": "uint256"
                }
              ],
              "internalType": "struct Client.EVMTokenAmount[]",
              "name": "destTokenAmounts",
              "type": "tuple[]"
            }
          ],
          "internalType": "struct Client.Any2EVMMessage",
          "name": "message",
          "type": "tuple"
        }
      ],
      "name": "ccipReceive",
      "outputs": [],
      "stateMutability": "nonpayable",
      "type": "function"
    },
    {
      "inputs": [],
      "name": "chainId",
      "outputs": [
        {
          "internalType": "uint32",
          "name": "",
          "type": "uint32"
        }
      ],
      "stateMutability": "view",
      "type": "function"
    },
    {
      "inputs": [],
      "name": "chainSelector",
      "outputs": [
        {
          "internalType": "uint64",
          "name": "",
          "type": "uint64"
        }
      ],
      "stateMutability": "view",
      "type": "function"
    },
    {
      "inputs": [],
      "name": "getProtocolFee",
      "outputs": [
        {
          "internalType": "uint256",
          "name": "",
          "type": "uint256"
        }
      ],
      "stateMutability": "pure",
      "type": "function"
    },
    {
      "inputs": [],
      "name": "getRouter",
      "outputs": [
        {
          "internalType": "address",
          "name": "",
          "type": "address"
        }
      ],
      "stateMutability": "view",
      "type": "function"
    },
    {
      "inputs": [],
      "name": "middlewareAddress",
      "outputs": [
        {
          "internalType": "address",
          "name": "",
          "type": "address"
        }
      ],
      "stateMutability": "view",
      "type": "function"
    },
    {
      "inputs": [],
      "name": "owner",
      "outputs": [
        {
          "internalType": "address",
          "name": "",
          "type": "address"
        }
      ],
      "stateMutability": "view",
      "type": "function"
    },
    {
      "inputs": [],
      "name": "passTokenAddress",
      "outputs": [
        {
          "internalType": "address",
          "name": "",
          "type": "address"
        }
      ],
      "stateMutability": "view",
      "type": "function"
    },
    {
      "inputs": [
        {
          "internalType": "bytes32",
          "name": "",
          "type": "bytes32"
        }
      ],
      "name": "receivedBridgeDatas",
      "outputs": [
        {
          "internalType": "bytes",
          "name": "",
          "type": "bytes"
        }
      ],
      "stateMutability": "view",
      "type": "function"
    },
    {
      "inputs": [
        {
          "internalType": "bytes4",
          "name": "interfaceId",
          "type": "bytes4"
        }
      ],
      "name": "supportsInterface",
      "outputs": [
        {
          "internalType": "bool",
          "name": "",
          "type": "bool"
        }
      ],
      "stateMutability": "pure",
      "type": "function"
    },
    {
      "inputs": [
        {
          "internalType": "address",
          "name": "to",
          "type": "address"
        }
      ],
      "name": "transferOwnership",
      "outputs": [],
      "stateMutability": "nonpayable",
      "type": "function"
    },
    {
      "inputs": [
        {
          "internalType": "address",
          "name": "_beneficiary",
          "type": "address"
        }
      ],
      "name": "withdrawBridgeNativeFee",
      "outputs": [],
      "stateMutability": "nonpayable",
      "type": "function"
    },
    {
      "inputs": [
        {
          "internalType": "address",
          "name": "_beneficiary",
          "type": "address"
        },
        {
          "internalType": "address",
          "name": "_token",
          "type": "address"
        }
      ],
      "name": "withdrawBridgeTokenFee",
      "outputs": [],
      "stateMutability": "nonpayable",
      "type": "function"
    },
    {
      "stateMutability": "payable",
      "type": "receive"
    }
  ],
  "bytecode": "0x60e06040523480156200001157600080fd5b506040516200418838038062004188833981810160405281019062000037919062000483565b83833380600084600073ffffffffffffffffffffffffffffffffffffffff168173ffffffffffffffffffffffffffffffffffffffff1603620000b35760006040517fd7f73334000000000000000000000000000000000000000000000000000000008152600401620000aa919062000506565b60405180910390fd5b8073ffffffffffffffffffffffffffffffffffffffff1660808173ffffffffffffffffffffffffffffffffffffffff168152505050600073ffffffffffffffffffffffffffffffffffffffff168273ffffffffffffffffffffffffffffffffffffffff16036200015a576040517f08c379a0000000000000000000000000000000000000000000000000000000008152600401620001519062000584565b60405180910390fd5b81600b60006101000a81548173ffffffffffffffffffffffffffffffffffffffff021916908373ffffffffffffffffffffffffffffffffffffffff160217905550600073ffffffffffffffffffffffffffffffffffffffff168173ffffffffffffffffffffffffffffffffffffffff1614620001e257620001e1816200026260201b60201c565b5b50505080600d60006101000a81548173ffffffffffffffffffffffffffffffffffffffff021916908373ffffffffffffffffffffffffffffffffffffffff16021790555050508167ffffffffffffffff1660a08167ffffffffffffffff16815250508063ffffffff1660c08163ffffffff16815250505050505062000618565b3373ffffffffffffffffffffffffffffffffffffffff168173ffffffffffffffffffffffffffffffffffffffff1603620002d3576040517f08c379a0000000000000000000000000000000000000000000000000000000008152600401620002ca90620005f6565b60405180910390fd5b80600c60006101000a81548173ffffffffffffffffffffffffffffffffffffffff021916908373ffffffffffffffffffffffffffffffffffffffff1602179055508073ffffffffffffffffffffffffffffffffffffffff16600b60009054906101000a900473ffffffffffffffffffffffffffffffffffffffff1673ffffffffffffffffffffffffffffffffffffffff167fed8889f560326eb138920d842192f0eb3dd22b4f139c87a2c57538e05bae127860405160405180910390a350565b600080fd5b600073ffffffffffffffffffffffffffffffffffffffff82169050919050565b6000620003c58262000398565b9050919050565b620003d781620003b8565b8114620003e357600080fd5b50565b600081519050620003f781620003cc565b92915050565b600067ffffffffffffffff82169050919050565b6200041c81620003fd565b81146200042857600080fd5b50565b6000815190506200043c8162000411565b92915050565b600063ffffffff82169050919050565b6200045d8162000442565b81146200046957600080fd5b50565b6000815190506200047d8162000452565b92915050565b60008060008060808587031215620004a0576200049f62000393565b5b6000620004b087828801620003e6565b9450506020620004c387828801620003e6565b9350506040620004d6878288016200042b565b9250506060620004e9878288016200046c565b91505092959194509250565b6200050081620003b8565b82525050565b60006020820190506200051d6000830184620004f5565b92915050565b600082825260208201905092915050565b7f43616e6e6f7420736574206f776e657220746f207a65726f0000000000000000600082015250565b60006200056c60188362000523565b9150620005798262000534565b602082019050919050565b600060208201905081810360008301526200059f816200055d565b9050919050565b7f43616e6e6f74207472616e7366657220746f2073656c66000000000000000000600082015250565b6000620005de60178362000523565b9150620005eb82620005a6565b602082019050919050565b600060208201905081810360008301526200061181620005cf565b9050919050565b60805160a05160c051613b396200064f60003960006109350152600061056701526000818161072201526117090152613b396000f3fe60806040526004361061010d5760003560e01c80639e8445f411610095578063b0f479a111610064578063b0f479a114610364578063b2ec828c1461038f578063b7fe0ce7146103ce578063cba38603146103f7578063f2fde38b1461042057610114565b80639e8445f414610296578063a2641a53146102bf578063a5a41031146102fc578063a9e6d22b1461032757610114565b806379ba5097116100dc57806379ba5097146101d757806385572ffb146101ee5780638da5cb5b1461021757806399b2928a146102425780639a8a05921461026b57610114565b806301ffc9a714610119578063048e433e1461015657806349f05865146101815780634e4bc847146101ac57610114565b3661011457005b600080fd5b34801561012557600080fd5b50610140600480360381019061013b919061223c565b610449565b60405161014d9190612284565b60405180910390f35b34801561016257600080fd5b5061016b61051b565b60405161017891906122e0565b60405180910390f35b34801561018d57600080fd5b5061019661053f565b6040516101a391906122e0565b60405180910390f35b3480156101b857600080fd5b506101c1610565565b6040516101ce919061231e565b60405180910390f35b3480156101e357600080fd5b506101ec610589565b005b3480156101fa57600080fd5b506102156004803603810190610210919061235d565b610720565b005b34801561022357600080fd5b5061022c6107c5565b60405161023991906122e0565b60405180910390f35b34801561024e57600080fd5b50610269600480360381019061026491906123d2565b6107ef565b005b34801561027757600080fd5b50610280610933565b60405161028d9190612431565b60405180910390f35b3480156102a257600080fd5b506102bd60048036038101906102b891906124ae565b610957565b005b3480156102cb57600080fd5b506102e660048036038101906102e1919061254b565b611627565b6040516102f39190612608565b60405180910390f35b34801561030857600080fd5b506103116116c7565b60405161031e9190612639565b60405180910390f35b34801561033357600080fd5b5061034e60048036038101906103499190612680565b6116d6565b60405161035b9190612284565b60405180910390f35b34801561037057600080fd5b50610379611705565b60405161038691906122e0565b60405180910390f35b34801561039b57600080fd5b506103b660048036038101906103b191906126c0565b61172d565b6040516103c593929190612764565b60405180910390f35b3480156103da57600080fd5b506103f560048036038101906103f0919061279b565b611798565b005b34801561040357600080fd5b5061041e600480360381019061041991906127ee565b611938565b005b34801561042c57600080fd5b50610447600480360381019061044291906127ee565b611a36565b005b60007f85572ffb000000000000000000000000000000000000000000000000000000007bffffffffffffffffffffffffffffffffffffffffffffffffffffffff1916827bffffffffffffffffffffffffffffffffffffffffffffffffffffffff1916148061051457507f01ffc9a7000000000000000000000000000000000000000000000000000000007bffffffffffffffffffffffffffffffffffffffffffffffffffffffff1916827bffffffffffffffffffffffffffffffffffffffffffffffffffffffff1916145b9050919050565b60008054906101000a900473ffffffffffffffffffffffffffffffffffffffff1681565b600a60009054906101000a900473ffffffffffffffffffffffffffffffffffffffff1681565b7f000000000000000000000000000000000000000000000000000000000000000081565b600c60009054906101000a900473ffffffffffffffffffffffffffffffffffffffff1673ffffffffffffffffffffffffffffffffffffffff163373ffffffffffffffffffffffffffffffffffffffff1614610619576040517f08c379a000000000000000000000000000000000000000000000000000000000815260040161061090612878565b60405180910390fd5b6000600b60009054906101000a900473ffffffffffffffffffffffffffffffffffffffff16905033600b60006101000a81548173ffffffffffffffffffffffffffffffffffffffff021916908373ffffffffffffffffffffffffffffffffffffffff1602179055506000600c60006101000a81548173ffffffffffffffffffffffffffffffffffffffff021916908373ffffffffffffffffffffffffffffffffffffffff1602179055503373ffffffffffffffffffffffffffffffffffffffff168173ffffffffffffffffffffffffffffffffffffffff167f8be0079c531659141344cd1fd0a4f28419497f9722a3daafe3b4186f6b6457e060405160405180910390a350565b7f000000000000000000000000000000000000000000000000000000000000000073ffffffffffffffffffffffffffffffffffffffff163373ffffffffffffffffffffffffffffffffffffffff16146107b057336040517fd7f733340000000000000000000000000000000000000000000000000000000081526004016107a791906122e0565b60405180910390fd5b6107c2816107bd90612bcf565b611a4a565b50565b6000600b60009054906101000a900473ffffffffffffffffffffffffffffffffffffffff16905090565b6107f7611ef1565b60008173ffffffffffffffffffffffffffffffffffffffff166370a08231306040518263ffffffff1660e01b815260040161083291906122e0565b602060405180830381865afa15801561084f573d6000803e3d6000fd5b505050506040513d601f19601f820116820180604052508101906108739190612bf7565b9050600081036108af576040517fd0d04f6000000000000000000000000000000000000000000000000000000000815260040160405180910390fd5b8173ffffffffffffffffffffffffffffffffffffffff1663a9059cbb84836040518363ffffffff1660e01b81526004016108ea929190612c24565b6020604051808303816000875af1158015610909573d6000803e3d6000fd5b505050506040513d601f19601f8201168201806040525081019061092d9190612c79565b50505050565b7f000000000000000000000000000000000000000000000000000000000000000081565b6000600260008363ffffffff1663ffffffff1681526020019081526020016000206040518060600160405290816000820160009054906101000a900473ffffffffffffffffffffffffffffffffffffffff1673ffffffffffffffffffffffffffffffffffffffff1673ffffffffffffffffffffffffffffffffffffffff1681526020016000820160149054906101000a900467ffffffffffffffff1667ffffffffffffffff1667ffffffffffffffff16815260200160008201601c9054906101000a900460ff166002811115610a3057610a2f6126ed565b5b6002811115610a4257610a416126ed565b5b815250509050600073ffffffffffffffffffffffffffffffffffffffff16816000015173ffffffffffffffffffffffffffffffffffffffff1603610abb576040517f08c379a0000000000000000000000000000000000000000000000000000000008152600401610ab290612cf2565b60405180910390fd5b60016002811115610acf57610ace6126ed565b5b81604001516002811115610ae657610ae56126ed565b5b14610b26576040517f08c379a0000000000000000000000000000000000000000000000000000000008152600401610b1d90612daa565b60405180910390fd5b600560008473ffffffffffffffffffffffffffffffffffffffff1673ffffffffffffffffffffffffffffffffffffffff16815260200190815260200160002060008363ffffffff1663ffffffff16815260200190815260200160002060009054906101000a900460ff16610bcf576040517f08c379a0000000000000000000000000000000000000000000000000000000008152600401610bc690612e3c565b60405180910390fd5b6000600660008573ffffffffffffffffffffffffffffffffffffffff1673ffffffffffffffffffffffffffffffffffffffff16815260200190815260200160002060008463ffffffff1663ffffffff1681526020019081526020016000205411610c6e576040517f08c379a0000000000000000000000000000000000000000000000000000000008152600401610c6590612ece565b60405180910390fd5b610c76611f83565b8411610cb7576040517f08c379a0000000000000000000000000000000000000000000000000000000008152600401610cae90612f60565b60405180910390fd5b838373ffffffffffffffffffffffffffffffffffffffff1663dd62ed3e33306040518363ffffffff1660e01b8152600401610cf3929190612f80565b602060405180830381865afa158015610d10573d6000803e3d6000fd5b505050506040513d601f19601f82011682018060405250810190610d349190612bf7565b1015610d75576040517f08c379a0000000000000000000000000000000000000000000000000000000008152600401610d6c90612ff5565b60405180910390fd5b838373ffffffffffffffffffffffffffffffffffffffff166370a08231336040518263ffffffff1660e01b8152600401610daf91906122e0565b602060405180830381865afa158015610dcc573d6000803e3d6000fd5b505050506040513d601f19601f82011682018060405250810190610df09190612bf7565b1015610e31576040517f08c379a0000000000000000000000000000000000000000000000000000000008152600401610e2890613061565b60405180910390fd5b60008373ffffffffffffffffffffffffffffffffffffffff166323b872dd3330886040518463ffffffff1660e01b8152600401610e7093929190613081565b6020604051808303816000875af1158015610e8f573d6000803e3d6000fd5b505050506040513d601f19601f82011682018060405250810190610eb39190612c79565b905080610ef5576040517f08c379a0000000000000000000000000000000000000000000000000000000008152600401610eec90613104565b60405180910390fd5b60026004811115610f0957610f086126ed565b5b600760008673ffffffffffffffffffffffffffffffffffffffff1673ffffffffffffffffffffffffffffffffffffffff16815260200190815260200160002060008563ffffffff1663ffffffff1681526020019081526020016000206000600660008873ffffffffffffffffffffffffffffffffffffffff1673ffffffffffffffffffffffffffffffffffffffff16815260200190815260200160002060008763ffffffff1663ffffffff168152602001908152602001600020548152602001908152602001600020600101601c9054906101000a900460ff166004811115610ff557610ff46126ed565b5b036110c4576001600660008673ffffffffffffffffffffffffffffffffffffffff1673ffffffffffffffffffffffffffffffffffffffff16815260200190815260200160002060008563ffffffff1663ffffffff168152602001908152602001600020546110639190613153565b600660008673ffffffffffffffffffffffffffffffffffffffff1673ffffffffffffffffffffffffffffffffffffffff16815260200190815260200160002060008563ffffffff1663ffffffff168152602001908152602001600020819055505b6000600660008673ffffffffffffffffffffffffffffffffffffffff1673ffffffffffffffffffffffffffffffffffffffff16815260200190815260200160002060008563ffffffff1663ffffffff1681526020019081526020016000205490506000600760008773ffffffffffffffffffffffffffffffffffffffff1673ffffffffffffffffffffffffffffffffffffffff16815260200190815260200160002060008663ffffffff1663ffffffff16815260200190815260200160002060008381526020019081526020016000209050600073ffffffffffffffffffffffffffffffffffffffff168160010160009054906101000a900473ffffffffffffffffffffffffffffffffffffffff1673ffffffffffffffffffffffffffffffffffffffff16036112bd57858160010160006101000a81548173ffffffffffffffffffffffffffffffffffffffff021916908373ffffffffffffffffffffffffffffffffffffffff160217905550600460008663ffffffff1663ffffffff16815260200190815260200160002060009054906101000a900467ffffffffffffffff168160010160146101000a81548167ffffffffffffffff021916908367ffffffffffffffff160217905550600181600101601c6101000a81548160ff021916908360048111156112b7576112b66126ed565b5b02179055505b60006112c7611f83565b886112d29190613187565b90508082600201546112e49190613153565b82600201819055508160030160405180604001604052808b73ffffffffffffffffffffffffffffffffffffffff16815260200183815250908060018154018082558091505060019003906000526020600020906002020160009091909190915060008201518160000160006101000a81548173ffffffffffffffffffffffffffffffffffffffff021916908373ffffffffffffffffffffffffffffffffffffffff16021790555060208201518160010155505081600760008973ffffffffffffffffffffffffffffffffffffffff1673ffffffffffffffffffffffffffffffffffffffff16815260200190815260200160002060008863ffffffff1663ffffffff1681526020019081526020016000206000858152602001908152602001600020600082015481600001556001820160009054906101000a900473ffffffffffffffffffffffffffffffffffffffff168160010160006101000a81548173ffffffffffffffffffffffffffffffffffffffff021916908373ffffffffffffffffffffffffffffffffffffffff1602179055506001820160149054906101000a900467ffffffffffffffff168160010160146101000a81548167ffffffffffffffff021916908367ffffffffffffffff16021790555060018201601c9054906101000a900460ff1681600101601c6101000a81548160ff021916908360048111156114f1576114f06126ed565b5b02179055506002820154816002015560038201816003019080546115169291906120c1565b509050506000600960003373ffffffffffffffffffffffffffffffffffffffff1673ffffffffffffffffffffffffffffffffffffffff168152602001908152602001600020604051806060016040529081600082015481526020016001820154815260200160028201548152505090506001816000018181516115999190613153565b915081815250506001816020018181516115b39190613153565b9150818152505080600960003373ffffffffffffffffffffffffffffffffffffffff1673ffffffffffffffffffffffffffffffffffffffff16815260200190815260200160002060008201518160000155602082015181600101556040820151816002015590505050505050505050505050565b60016020528060005260406000206000915090508054611646906131ea565b80601f0160208091040260200160405190810160405280929190818152602001828054611672906131ea565b80156116bf5780601f10611694576101008083540402835291602001916116bf565b820191906000526020600020905b8154815290600101906020018083116116a257829003601f168201915b505050505081565b60006116d1611f83565b905090565b60036020528160005260406000206020528060005260406000206000915091509054906101000a900460ff1681565b60007f0000000000000000000000000000000000000000000000000000000000000000905090565b60026020528060005260406000206000915090508060000160009054906101000a900473ffffffffffffffffffffffffffffffffffffffff16908060000160149054906101000a900467ffffffffffffffff169080600001601c9054906101000a900460ff16905083565b6117a0611ef1565b6001600360008373ffffffffffffffffffffffffffffffffffffffff1673ffffffffffffffffffffffffffffffffffffffff16815260200190815260200160002060008467ffffffffffffffff1667ffffffffffffffff16815260200190815260200160002060006101000a81548160ff02191690831515021790555060405180606001604052808273ffffffffffffffffffffffffffffffffffffffff1681526020018367ffffffffffffffff16815260200160016002811115611868576118676126ed565b5b815250600260008563ffffffff1663ffffffff16815260200190815260200160002060008201518160000160006101000a81548173ffffffffffffffffffffffffffffffffffffffff021916908373ffffffffffffffffffffffffffffffffffffffff16021790555060208201518160000160146101000a81548167ffffffffffffffff021916908367ffffffffffffffff160217905550604082015181600001601c6101000a81548160ff0219169083600281111561192b5761192a6126ed565b5b0217905550905050505050565b611940611ef1565b60004790506000810361197f576040517fd0d04f6000000000000000000000000000000000000000000000000000000000815260040160405180910390fd5b60008273ffffffffffffffffffffffffffffffffffffffff16826040516119a59061324c565b60006040518083038185875af1925050503d80600081146119e2576040519150601f19603f3d011682016040523d82523d6000602084013e6119e7565b606091505b5050905080611a31573383836040517f9d11f563000000000000000000000000000000000000000000000000000000008152600401611a2893929190613081565b60405180910390fd5b505050565b611a3e611ef1565b611a4781611f93565b50565b80602001518160400151806020019051810190611a67919061329f565b600360008273ffffffffffffffffffffffffffffffffffffffff1673ffffffffffffffffffffffffffffffffffffffff16815260200190815260200160002060008367ffffffffffffffff1667ffffffffffffffff16815260200190815260200160002060009054906101000a900460ff16611b1c5781816040517f8c9d9017000000000000000000000000000000000000000000000000000000008152600401611b139291906132cc565b60405180910390fd5b60008360600151806020019051810190611b3691906135a8565b90508360400151806020019051810190611b50919061329f565b73ffffffffffffffffffffffffffffffffffffffff1660026000836020015163ffffffff1663ffffffff16815260200190815260200160002060000160009054906101000a900473ffffffffffffffffffffffffffffffffffffffff1673ffffffffffffffffffffffffffffffffffffffff16148015611c215750836020015167ffffffffffffffff1660026000836020015163ffffffff1663ffffffff16815260200190815260200160002060000160149054906101000a900467ffffffffffffffff1667ffffffffffffffff16145b611c60576040517f08c379a0000000000000000000000000000000000000000000000000000000008152600401611c579061363d565b60405180910390fd5b836060015160016000866000015181526020019081526020016000209081611c889190613809565b50836020015167ffffffffffffffff1684600001517f4add8c8902d6fd412fed639bf652d936405bbb837c732a202153c91e89ebfaa78660400151806020019051810190611cd6919061329f565b8760600151604051611ce9929190613930565b60405180910390a360008160000151905060018160a00151511015611d3a576040517fe1a5ca8800000000000000000000000000000000000000000000000000000000815260040160405180910390fd5b60005b8160a0015151811015611e2b5760008260a001518281518110611d6357611d62613960565b5b602002602001015190508660800151600081518110611d8557611d84613960565b5b60200260200101516000015173ffffffffffffffffffffffffffffffffffffffff1663a9059cbb826000015183602001516040518363ffffffff1660e01b8152600401611dd3929190612c24565b6020604051808303816000875af1158015611df2573d6000803e3d6000fd5b505050506040513d601f19601f82011682018060405250810190611e169190612c79565b50508080611e239061398f565b915050611d3d565b508460800151600081518110611e4457611e43613960565b5b60200260200101516000015173ffffffffffffffffffffffffffffffffffffffff1681600001517f6ca798e95d27996d7152fb5c8a0fd1837160cbe01ffbc4b5e6ba13a738b5862a876000015188602001518960400151806020019051810190611eae919061329f565b8a60800151600081518110611ec657611ec5613960565b5b602002602001015160200151604051611ee294939291906139e6565b60405180910390a35050505050565b600b60009054906101000a900473ffffffffffffffffffffffffffffffffffffffff1673ffffffffffffffffffffffffffffffffffffffff163373ffffffffffffffffffffffffffffffffffffffff1614611f81576040517f08c379a0000000000000000000000000000000000000000000000000000000008152600401611f7890613a77565b60405180910390fd5b565b6000674563918244f40000905090565b3373ffffffffffffffffffffffffffffffffffffffff168173ffffffffffffffffffffffffffffffffffffffff1603612001576040517f08c379a0000000000000000000000000000000000000000000000000000000008152600401611ff890613ae3565b60405180910390fd5b80600c60006101000a81548173ffffffffffffffffffffffffffffffffffffffff021916908373ffffffffffffffffffffffffffffffffffffffff1602179055508073ffffffffffffffffffffffffffffffffffffffff16600b60009054906101000a900473ffffffffffffffffffffffffffffffffffffffff1673ffffffffffffffffffffffffffffffffffffffff167fed8889f560326eb138920d842192f0eb3dd22b4f139c87a2c57538e05bae127860405160405180910390a350565b8280548282559060005260206000209060020281019282156121795760005260206000209160020282015b828111156121785782826000820160009054906101000a900473ffffffffffffffffffffffffffffffffffffffff168160000160006101000a81548173ffffffffffffffffffffffffffffffffffffffff021916908373ffffffffffffffffffffffffffffffffffffffff160217905550600182015481600101555050916002019190600201906120ec565b5b509050612186919061218a565b5090565b5b808211156121cc57600080820160006101000a81549073ffffffffffffffffffffffffffffffffffffffff021916905560018201600090555060020161218b565b5090565b6000604051905090565b600080fd5b600080fd5b60007fffffffff0000000000000000000000000000000000000000000000000000000082169050919050565b612219816121e4565b811461222457600080fd5b50565b60008135905061223681612210565b92915050565b600060208284031215612252576122516121da565b5b600061226084828501612227565b91505092915050565b60008115159050919050565b61227e81612269565b82525050565b60006020820190506122996000830184612275565b92915050565b600073ffffffffffffffffffffffffffffffffffffffff82169050919050565b60006122ca8261229f565b9050919050565b6122da816122bf565b82525050565b60006020820190506122f560008301846122d1565b92915050565b600067ffffffffffffffff82169050919050565b612318816122fb565b82525050565b6000602082019050612333600083018461230f565b92915050565b600080fd5b600060a0828403121561235457612353612339565b5b81905092915050565b600060208284031215612373576123726121da565b5b600082013567ffffffffffffffff811115612391576123906121df565b5b61239d8482850161233e565b91505092915050565b6123af816122bf565b81146123ba57600080fd5b50565b6000813590506123cc816123a6565b92915050565b600080604083850312156123e9576123e86121da565b5b60006123f7858286016123bd565b9250506020612408858286016123bd565b9150509250929050565b600063ffffffff82169050919050565b61242b81612412565b82525050565b60006020820190506124466000830184612422565b92915050565b6000819050919050565b61245f8161244c565b811461246a57600080fd5b50565b60008135905061247c81612456565b92915050565b61248b81612412565b811461249657600080fd5b50565b6000813590506124a881612482565b92915050565b600080600080608085870312156124c8576124c76121da565b5b60006124d6878288016123bd565b94505060206124e78782880161246d565b93505060406124f8878288016123bd565b925050606061250987828801612499565b91505092959194509250565b6000819050919050565b61252881612515565b811461253357600080fd5b50565b6000813590506125458161251f565b92915050565b600060208284031215612561576125606121da565b5b600061256f84828501612536565b91505092915050565b600081519050919050565b600082825260208201905092915050565b60005b838110156125b2578082015181840152602081019050612597565b60008484015250505050565b6000601f19601f8301169050919050565b60006125da82612578565b6125e48185612583565b93506125f4818560208601612594565b6125fd816125be565b840191505092915050565b6000602082019050818103600083015261262281846125cf565b905092915050565b6126338161244c565b82525050565b600060208201905061264e600083018461262a565b92915050565b61265d816122fb565b811461266857600080fd5b50565b60008135905061267a81612654565b92915050565b60008060408385031215612697576126966121da565b5b60006126a5858286016123bd565b92505060206126b68582860161266b565b9150509250929050565b6000602082840312156126d6576126d56121da565b5b60006126e484828501612499565b91505092915050565b7f4e487b7100000000000000000000000000000000000000000000000000000000600052602160045260246000fd5b6003811061272d5761272c6126ed565b5b50565b600081905061273e8261271c565b919050565b600061274e82612730565b9050919050565b61275e81612743565b82525050565b600060608201905061277960008301866122d1565b612786602083018561230f565b6127936040830184612755565b949350505050565b6000806000606084860312156127b4576127b36121da565b5b60006127c286828701612499565b93505060206127d38682870161266b565b92505060406127e4868287016123bd565b9150509250925092565b600060208284031215612804576128036121da565b5b6000612812848285016123bd565b91505092915050565b600082825260208201905092915050565b7f4d7573742062652070726f706f736564206f776e657200000000000000000000600082015250565b600061286260168361281b565b915061286d8261282c565b602082019050919050565b6000602082019050818103600083015261289181612855565b9050919050565b600080fd5b7f4e487b7100000000000000000000000000000000000000000000000000000000600052604160045260246000fd5b6128d5826125be565b810181811067ffffffffffffffff821117156128f4576128f361289d565b5b80604052505050565b60006129076121d0565b905061291382826128cc565b919050565b600080fd5b600080fd5b600080fd5b600067ffffffffffffffff8211156129425761294161289d565b5b61294b826125be565b9050602081019050919050565b82818337600083830152505050565b600061297a61297584612927565b6128fd565b90508281526020810184848401111561299657612995612922565b5b6129a1848285612958565b509392505050565b600082601f8301126129be576129bd61291d565b5b81356129ce848260208601612967565b91505092915050565b600067ffffffffffffffff8211156129f2576129f161289d565b5b602082029050602081019050919050565b600080fd5b600060408284031215612a1e57612a1d612898565b5b612a2860406128fd565b90506000612a38848285016123bd565b6000830152506020612a4c8482850161246d565b60208301525092915050565b6000612a6b612a66846129d7565b6128fd565b90508083825260208201905060408402830185811115612a8e57612a8d612a03565b5b835b81811015612ab75780612aa38882612a08565b845260208401935050604081019050612a90565b5050509392505050565b600082601f830112612ad657612ad561291d565b5b8135612ae6848260208601612a58565b91505092915050565b600060a08284031215612b0557612b04612898565b5b612b0f60a06128fd565b90506000612b1f84828501612536565b6000830152506020612b338482850161266b565b602083015250604082013567ffffffffffffffff811115612b5757612b56612918565b5b612b63848285016129a9565b604083015250606082013567ffffffffffffffff811115612b8757612b86612918565b5b612b93848285016129a9565b606083015250608082013567ffffffffffffffff811115612bb757612bb6612918565b5b612bc384828501612ac1565b60808301525092915050565b6000612bdb3683612aef565b9050919050565b600081519050612bf181612456565b92915050565b600060208284031215612c0d57612c0c6121da565b5b6000612c1b84828501612be2565b91505092915050565b6000604082019050612c3960008301856122d1565b612c46602083018461262a565b9392505050565b612c5681612269565b8114612c6157600080fd5b50565b600081519050612c7381612c4d565b92915050565b600060208284031215612c8f57612c8e6121da565b5b6000612c9d84828501612c64565b91505092915050565b7f696e76616c696420636861696e20494400000000000000000000000000000000600082015250565b6000612cdc60108361281b565b9150612ce782612ca6565b602082019050919050565b60006020820190508181036000830152612d0b81612ccf565b9050919050565b7f44657374696e6174696f6e20636861696e206973206e6f7420617661696c616260008201527f6c6520617420746865206d6f6d656e742e2028506175736564206f7220496e6160208201527f6374697665290000000000000000000000000000000000000000000000000000604082015250565b6000612d9460468361281b565b9150612d9f82612d12565b606082019050919050565b60006020820190508181036000830152612dc381612d87565b9050919050565b7f546f6b656e206e6f7420737570706f7274656420696e2064657374696e61746960008201527f6f6e20636861696e000000000000000000000000000000000000000000000000602082015250565b6000612e2660288361281b565b9150612e3182612dca565b604082019050919050565b60006020820190508181036000830152612e5581612e19565b9050919050565b7f546f6b656e206973206e6f742079657420696e697469616c697a656420696e2060008201527f44657374696e6174696f6e20636861696e000000000000000000000000000000602082015250565b6000612eb860318361281b565b9150612ec382612e5c565b604082019050919050565b60006020820190508181036000830152612ee781612eab565b9050919050565b7f416d6f756e7420646f6573206e6f7420636f76657220666565206e656564656460008201527f20746f20706572666f726d20627269646765206f7065726174696f6e00000000602082015250565b6000612f4a603c8361281b565b9150612f5582612eee565b604082019050919050565b60006020820190508181036000830152612f7981612f3d565b9050919050565b6000604082019050612f9560008301856122d1565b612fa260208301846122d1565b9392505050565b7f416c6c6f77616e63652065786365656465640000000000000000000000000000600082015250565b6000612fdf60128361281b565b9150612fea82612fa9565b602082019050919050565b6000602082019050818103600083015261300e81612fd2565b9050919050565b7f496e73756666696369656e7420746f6b656e2062616c616e6365000000000000600082015250565b600061304b601a8361281b565b915061305682613015565b602082019050919050565b6000602082019050818103600083015261307a8161303e565b9050919050565b600060608201905061309660008301866122d1565b6130a360208301856122d1565b6130b0604083018461262a565b949350505050565b7f546f6b656e207472616e73666572206572726f72000000000000000000000000600082015250565b60006130ee60148361281b565b91506130f9826130b8565b602082019050919050565b6000602082019050818103600083015261311d816130e1565b9050919050565b7f4e487b7100000000000000000000000000000000000000000000000000000000600052601160045260246000fd5b600061315e8261244c565b91506131698361244c565b925082820190508082111561318157613180613124565b5b92915050565b60006131928261244c565b915061319d8361244c565b92508282039050818111156131b5576131b4613124565b5b92915050565b7f4e487b7100000000000000000000000000000000000000000000000000000000600052602260045260246000fd5b6000600282049050600182168061320257607f821691505b602082108103613215576132146131bb565b5b50919050565b600081905092915050565b50565b600061323660008361321b565b915061324182613226565b600082019050919050565b600061325782613229565b9150819050919050565b600061326c8261229f565b9050919050565b61327c81613261565b811461328757600080fd5b50565b60008151905061329981613273565b92915050565b6000602082840312156132b5576132b46121da565b5b60006132c38482850161328a565b91505092915050565b60006040820190506132e1600083018561230f565b6132ee60208301846122d1565b9392505050565b600081519050613304816123a6565b92915050565b60008151905061331981612654565b92915050565b6005811061332c57600080fd5b50565b60008151905061333e8161331f565b92915050565b600067ffffffffffffffff82111561335f5761335e61289d565b5b602082029050602081019050919050565b60006040828403121561338657613385612898565b5b61339060406128fd565b905060006133a0848285016132f5565b60008301525060206133b484828501612be2565b60208301525092915050565b60006133d36133ce84613344565b6128fd565b905080838252602082019050604084028301858111156133f6576133f5612a03565b5b835b8181101561341f578061340b8882613370565b8452602084019350506040810190506133f8565b5050509392505050565b600082601f83011261343e5761343d61291d565b5b815161344e8482602086016133c0565b91505092915050565b600060c0828403121561346d5761346c612898565b5b61347760c06128fd565b9050600061348784828501612be2565b600083015250602061349b848285016132f5565b60208301525060406134af8482850161330a565b60408301525060606134c38482850161332f565b60608301525060806134d784828501612be2565b60808301525060a082015167ffffffffffffffff8111156134fb576134fa612918565b5b61350784828501613429565b60a08301525092915050565b60008151905061352281612482565b92915050565b60006060828403121561353e5761353d612898565b5b61354860606128fd565b9050600082015167ffffffffffffffff81111561356857613567612918565b5b61357484828501613457565b600083015250602061358884828501613513565b602083015250604061359c84828501613513565b60408301525092915050565b6000602082840312156135be576135bd6121da565b5b600082015167ffffffffffffffff8111156135dc576135db6121df565b5b6135e884828501613528565b91505092915050565b7f496e76616c696420627269646765206d65737361676500000000000000000000600082015250565b600061362760168361281b565b9150613632826135f1565b602082019050919050565b600060208201905081810360008301526136568161361a565b9050919050565b60008190508160005260206000209050919050565b60006020601f8301049050919050565b600082821b905092915050565b6000600883026136bf7fffffffffffffffffffffffffffffffffffffffffffffffffffffffffffffffff82613682565b6136c98683613682565b95508019841693508086168417925050509392505050565b6000819050919050565b60006137066137016136fc8461244c565b6136e1565b61244c565b9050919050565b6000819050919050565b613720836136eb565b61373461372c8261370d565b84845461368f565b825550505050565b600090565b61374961373c565b613754818484613717565b505050565b5b818110156137785761376d600082613741565b60018101905061375a565b5050565b601f8211156137bd5761378e8161365d565b61379784613672565b810160208510156137a6578190505b6137ba6137b285613672565b830182613759565b50505b505050565b600082821c905092915050565b60006137e0600019846008026137c2565b1980831691505092915050565b60006137f983836137cf565b9150826002028217905092915050565b61381282612578565b67ffffffffffffffff81111561382b5761382a61289d565b5b61383582546131ea565b61384082828561377c565b600060209050601f8311600181146138735760008415613861578287015190505b61386b85826137ed565b8655506138d3565b601f1984166138818661365d565b60005b828110156138a957848901518255600182019150602085019450602081019050613884565b868310156138c657848901516138c2601f8916826137cf565b8355505b6001600288020188555050505b505050505050565b60006138f66138f16138ec8461229f565b6136e1565b61229f565b9050919050565b6000613908826138db565b9050919050565b600061391a826138fd565b9050919050565b61392a8161390f565b82525050565b60006040820190506139456000830185613921565b818103602083015261395781846125cf565b90509392505050565b7f4e487b7100000000000000000000000000000000000000000000000000000000600052603260045260246000fd5b600061399a8261244c565b91507fffffffffffffffffffffffffffffffffffffffffffffffffffffffffffffffff82036139cc576139cb613124565b5b600182019050919050565b6139e081612515565b82525050565b60006080820190506139fb60008301876139d7565b613a08602083018661230f565b613a156040830185613921565b613a22606083018461262a565b95945050505050565b7f4f6e6c792063616c6c61626c65206279206f776e657200000000000000000000600082015250565b6000613a6160168361281b565b9150613a6c82613a2b565b602082019050919050565b60006020820190508181036000830152613a9081613a54565b9050919050565b7f43616e6e6f74207472616e7366657220746f2073656c66000000000000000000600082015250565b6000613acd60178361281b565b9150613ad882613a97565b602082019050919050565b60006020820190508181036000830152613afc81613ac0565b905091905056fea2646970667358221220933d7c7ebd33582fb0c74c30417108c90f53558e7e3fd76f4c3e5bd0061e178c64736f6c63430008140033",
  "linkReferences": {},
  "deployedLinkReferences": {}
}