{
  "_format": "hh-sol-artifact-1",
  "contractName": "TranzitPass",
  "sourceName": "contracts/tokens/TranzitPass.sol",
  "abi": [
    {
      "inputs": [],
      "stateMutability": "nonpayable",
      "type": "constructor"
    },
    {
      "inputs": [
        {
          "internalType": "address",
          "name": "sender",
          "type": "address"
        },
        {
          "internalType": "uint256",
          "name": "balance",
          "type": "uint256"
        },
        {
          "internalType": "uint256",
          "name": "needed",
          "type": "uint256"
        },
        {
          "internalType": "uint256",
          "name": "tokenId",
          "type": "uint256"
        }
      ],
      "name": "ERC1155InsufficientBalance",
      "type": "error"
    },
    {
      "inputs": [
        {
          "internalType": "address",
          "name": "approver",
          "type": "address"
        }
      ],
      "name": "ERC1155InvalidApprover",
      "type": "error"
    },
    {
      "inputs": [
        {
          "internalType": "uint256",
          "name": "idsLength",
          "type": "uint256"
        },
        {
          "internalType": "uint256",
          "name": "valuesLength",
          "type": "uint256"
        }
      ],
      "name": "ERC1155InvalidArrayLength",
      "type": "error"
    },
    {
      "inputs": [
        {
          "internalType": "address",
          "name": "operator",
          "type": "address"
        }
      ],
      "name": "ERC1155InvalidOperator",
      "type": "error"
    },
    {
      "inputs": [
        {
          "internalType": "address",
          "name": "receiver",
          "type": "address"
        }
      ],
      "name": "ERC1155InvalidReceiver",
      "type": "error"
    },
    {
      "inputs": [
        {
          "internalType": "address",
          "name": "sender",
          "type": "address"
        }
      ],
      "name": "ERC1155InvalidSender",
      "type": "error"
    },
    {
      "inputs": [
        {
          "internalType": "address",
          "name": "operator",
          "type": "address"
        },
        {
          "internalType": "address",
          "name": "owner",
          "type": "address"
        }
      ],
      "name": "ERC1155MissingApprovalForAll",
      "type": "error"
    },
    {
      "inputs": [
        {
          "internalType": "address",
          "name": "owner",
          "type": "address"
        }
      ],
      "name": "OwnableInvalidOwner",
      "type": "error"
    },
    {
      "inputs": [
        {
          "internalType": "address",
          "name": "account",
          "type": "address"
        }
      ],
      "name": "OwnableUnauthorizedAccount",
      "type": "error"
    },
    {
      "anonymous": false,
      "inputs": [
        {
          "indexed": true,
          "internalType": "address",
          "name": "account",
          "type": "address"
        },
        {
          "indexed": true,
          "internalType": "address",
          "name": "operator",
          "type": "address"
        },
        {
          "indexed": false,
          "internalType": "bool",
          "name": "approved",
          "type": "bool"
        }
      ],
      "name": "ApprovalForAll",
      "type": "event"
    },
    {
      "anonymous": false,
      "inputs": [
        {
          "indexed": true,
          "internalType": "address",
          "name": "previousOwner",
          "type": "address"
        },
        {
          "indexed": true,
          "internalType": "address",
          "name": "newOwner",
          "type": "address"
        }
      ],
      "name": "OwnershipTransferred",
      "type": "event"
    },
    {
      "anonymous": false,
      "inputs": [
        {
          "indexed": true,
          "internalType": "address",
          "name": "operator",
          "type": "address"
        },
        {
          "indexed": true,
          "internalType": "address",
          "name": "from",
          "type": "address"
        },
        {
          "indexed": true,
          "internalType": "address",
          "name": "to",
          "type": "address"
        },
        {
          "indexed": false,
          "internalType": "uint256[]",
          "name": "ids",
          "type": "uint256[]"
        },
        {
          "indexed": false,
          "internalType": "uint256[]",
          "name": "values",
          "type": "uint256[]"
        }
      ],
      "name": "TransferBatch",
      "type": "event"
    },
    {
      "anonymous": false,
      "inputs": [
        {
          "indexed": true,
          "internalType": "address",
          "name": "operator",
          "type": "address"
        },
        {
          "indexed": true,
          "internalType": "address",
          "name": "from",
          "type": "address"
        },
        {
          "indexed": true,
          "internalType": "address",
          "name": "to",
          "type": "address"
        },
        {
          "indexed": false,
          "internalType": "uint256",
          "name": "id",
          "type": "uint256"
        },
        {
          "indexed": false,
          "internalType": "uint256",
          "name": "value",
          "type": "uint256"
        }
      ],
      "name": "TransferSingle",
      "type": "event"
    },
    {
      "anonymous": false,
      "inputs": [
        {
          "indexed": false,
          "internalType": "string",
          "name": "value",
          "type": "string"
        },
        {
          "indexed": true,
          "internalType": "uint256",
          "name": "id",
          "type": "uint256"
        }
      ],
      "name": "URI",
      "type": "event"
    },
    {
      "inputs": [
        {
          "internalType": "address",
          "name": "account",
          "type": "address"
        },
        {
          "internalType": "uint256",
          "name": "id",
          "type": "uint256"
        }
      ],
      "name": "balanceOf",
      "outputs": [
        {
          "internalType": "uint256",
          "name": "",
          "type": "uint256"
        }
      ],
      "stateMutability": "view",
      "type": "function"
    },
    {
      "inputs": [
        {
          "internalType": "address[]",
          "name": "accounts",
          "type": "address[]"
        },
        {
          "internalType": "uint256[]",
          "name": "ids",
          "type": "uint256[]"
        }
      ],
      "name": "balanceOfBatch",
      "outputs": [
        {
          "internalType": "uint256[]",
          "name": "",
          "type": "uint256[]"
        }
      ],
      "stateMutability": "view",
      "type": "function"
    },
    {
      "inputs": [
        {
          "internalType": "address",
          "name": "from",
          "type": "address"
        },
        {
          "internalType": "uint256",
          "name": "typeId",
          "type": "uint256"
        },
        {
          "internalType": "uint256",
          "name": "amount",
          "type": "uint256"
        }
      ],
      "name": "burn",
      "outputs": [],
      "stateMutability": "nonpayable",
      "type": "function"
    },
    {
      "inputs": [
        {
          "internalType": "address",
          "name": "account",
          "type": "address"
        },
        {
          "internalType": "address",
          "name": "operator",
          "type": "address"
        }
      ],
      "name": "isApprovedForAll",
      "outputs": [
        {
          "internalType": "bool",
          "name": "",
          "type": "bool"
        }
      ],
      "stateMutability": "view",
      "type": "function"
    },
    {
      "inputs": [],
      "name": "maxTokenId",
      "outputs": [
        {
          "internalType": "uint8",
          "name": "",
          "type": "uint8"
        }
      ],
      "stateMutability": "view",
      "type": "function"
    },
    {
      "inputs": [
        {
          "internalType": "address",
          "name": "_account",
          "type": "address"
        },
        {
          "internalType": "uint256",
          "name": "_tokenId",
          "type": "uint256"
        },
        {
          "internalType": "uint256",
          "name": "_amount",
          "type": "uint256"
        }
      ],
      "name": "mint",
      "outputs": [],
      "stateMutability": "nonpayable",
      "type": "function"
    },
    {
      "inputs": [],
      "name": "name",
      "outputs": [
        {
          "internalType": "string",
          "name": "",
          "type": "string"
        }
      ],
      "stateMutability": "view",
      "type": "function"
    },
    {
      "inputs": [],
      "name": "owner",
      "outputs": [
        {
          "internalType": "address",
          "name": "",
          "type": "address"
        }
      ],
      "stateMutability": "view",
      "type": "function"
    },
    {
      "inputs": [],
      "name": "renounceOwnership",
      "outputs": [],
      "stateMutability": "nonpayable",
      "type": "function"
    },
    {
      "inputs": [
        {
          "internalType": "address",
          "name": "from",
          "type": "address"
        },
        {
          "internalType": "address",
          "name": "to",
          "type": "address"
        },
        {
          "internalType": "uint256[]",
          "name": "ids",
          "type": "uint256[]"
        },
        {
          "internalType": "uint256[]",
          "name": "values",
          "type": "uint256[]"
        },
        {
          "internalType": "bytes",
          "name": "data",
          "type": "bytes"
        }
      ],
      "name": "safeBatchTransferFrom",
      "outputs": [],
      "stateMutability": "nonpayable",
      "type": "function"
    },
    {
      "inputs": [
        {
          "internalType": "address",
          "name": "from",
          "type": "address"
        },
        {
          "internalType": "address",
          "name": "to",
          "type": "address"
        },
        {
          "internalType": "uint256",
          "name": "id",
          "type": "uint256"
        },
        {
          "internalType": "uint256",
          "name": "value",
          "type": "uint256"
        },
        {
          "internalType": "bytes",
          "name": "data",
          "type": "bytes"
        }
      ],
      "name": "safeTransferFrom",
      "outputs": [],
      "stateMutability": "nonpayable",
      "type": "function"
    },
    {
      "inputs": [
        {
          "internalType": "address",
          "name": "operator",
          "type": "address"
        },
        {
          "internalType": "bool",
          "name": "approved",
          "type": "bool"
        }
      ],
      "name": "setApprovalForAll",
      "outputs": [],
      "stateMutability": "nonpayable",
      "type": "function"
    },
    {
      "inputs": [
        {
          "internalType": "uint256",
          "name": "_tokenId",
          "type": "uint256"
        },
        {
          "internalType": "string",
          "name": "_uri",
          "type": "string"
        }
      ],
      "name": "setTokenURI",
      "outputs": [],
      "stateMutability": "nonpayable",
      "type": "function"
    },
    {
      "inputs": [
        {
          "internalType": "bytes4",
          "name": "interfaceId",
          "type": "bytes4"
        }
      ],
      "name": "supportsInterface",
      "outputs": [
        {
          "internalType": "bool",
          "name": "",
          "type": "bool"
        }
      ],
      "stateMutability": "view",
      "type": "function"
    },
    {
      "inputs": [
        {
          "internalType": "uint256",
          "name": "",
          "type": "uint256"
        }
      ],
      "name": "tokenURIs",
      "outputs": [
        {
          "internalType": "string",
          "name": "",
          "type": "string"
        }
      ],
      "stateMutability": "view",
      "type": "function"
    },
    {
      "inputs": [
        {
          "internalType": "address",
          "name": "newOwner",
          "type": "address"
        }
      ],
      "name": "transferOwnership",
      "outputs": [],
      "stateMutability": "nonpayable",
      "type": "function"
    },
    {
      "inputs": [
        {
          "internalType": "uint256",
          "name": "_tokenId",
          "type": "uint256"
        }
      ],
      "name": "uri",
      "outputs": [
        {
          "internalType": "string",
          "name": "",
          "type": "string"
        }
      ],
      "stateMutability": "view",
      "type": "function"
    }
  ],
  "bytecode": "0x60806040526040518060400160405280600b81526020017f5472616e7a697450617373000000000000000000000000000000000000000000815250600490816200004a91906200047a565b506003600560006101000a81548160ff021916908360ff1602179055503480156200007457600080fd5b50336040518060200160405280600081525062000097816200012560201b60201c565b50600073ffffffffffffffffffffffffffffffffffffffff168173ffffffffffffffffffffffffffffffffffffffff16036200010d5760006040517f1e4fbdf7000000000000000000000000000000000000000000000000000000008152600401620001049190620005a6565b60405180910390fd5b6200011e816200013a60201b60201c565b50620005c3565b80600290816200013691906200047a565b5050565b6000600360009054906101000a900473ffffffffffffffffffffffffffffffffffffffff16905081600360006101000a81548173ffffffffffffffffffffffffffffffffffffffff021916908373ffffffffffffffffffffffffffffffffffffffff1602179055508173ffffffffffffffffffffffffffffffffffffffff168173ffffffffffffffffffffffffffffffffffffffff167f8be0079c531659141344cd1fd0a4f28419497f9722a3daafe3b4186f6b6457e060405160405180910390a35050565b600081519050919050565b7f4e487b7100000000000000000000000000000000000000000000000000000000600052604160045260246000fd5b7f4e487b7100000000000000000000000000000000000000000000000000000000600052602260045260246000fd5b600060028204905060018216806200028257607f821691505b6020821081036200029857620002976200023a565b5b50919050565b60008190508160005260206000209050919050565b60006020601f8301049050919050565b600082821b905092915050565b600060088302620003027fffffffffffffffffffffffffffffffffffffffffffffffffffffffffffffffff82620002c3565b6200030e8683620002c3565b95508019841693508086168417925050509392505050565b6000819050919050565b6000819050919050565b60006200035b620003556200034f8462000326565b62000330565b62000326565b9050919050565b6000819050919050565b62000377836200033a565b6200038f620003868262000362565b848454620002d0565b825550505050565b600090565b620003a662000397565b620003b38184846200036c565b505050565b5b81811015620003db57620003cf6000826200039c565b600181019050620003b9565b5050565b601f8211156200042a57620003f4816200029e565b620003ff84620002b3565b810160208510156200040f578190505b620004276200041e85620002b3565b830182620003b8565b50505b505050565b600082821c905092915050565b60006200044f600019846008026200042f565b1980831691505092915050565b60006200046a83836200043c565b9150826002028217905092915050565b620004858262000200565b67ffffffffffffffff811115620004a157620004a06200020b565b5b620004ad825462000269565b620004ba828285620003df565b600060209050601f831160018114620004f25760008415620004dd578287015190505b620004e985826200045c565b86555062000559565b601f19841662000502866200029e565b60005b828110156200052c5784890151825560018201915060208501945060208101905062000505565b868310156200054c578489015162000548601f8916826200043c565b8355505b6001600288020188555050505b505050505050565b600073ffffffffffffffffffffffffffffffffffffffff82169050919050565b60006200058e8262000561565b9050919050565b620005a08162000581565b82525050565b6000602082019050620005bd600083018462000595565b92915050565b612bdb80620005d36000396000f3fe608060405234801561001057600080fd5b506004361061010a5760003560e01c80636c8b703f116100a2578063a22cb46511610071578063a22cb465146102b7578063e985e9c5146102d3578063f242432a14610303578063f2fde38b1461031f578063f5298aca1461033b5761010a565b80636c8b703f14610241578063715018a6146102715780638da5cb5b1461027b57806391ba317a146102995761010a565b8063156e29f6116100de578063156e29f6146101bd578063162094c4146101d95780632eb2c2d6146101f55780634e1273f4146102115761010a565b8062fdd58e1461010f57806301ffc9a71461013f57806306fdde031461016f5780630e89341c1461018d575b600080fd5b61012960048036038101906101249190611ae2565b610357565b6040516101369190611b31565b60405180910390f35b61015960048036038101906101549190611ba4565b6103b1565b6040516101669190611bec565b60405180910390f35b610177610493565b6040516101849190611c97565b60405180910390f35b6101a760048036038101906101a29190611cb9565b610521565b6040516101b49190611c97565b60405180910390f35b6101d760048036038101906101d29190611ce6565b6105c6565b005b6101f360048036038101906101ee9190611e6e565b61063e565b005b61020f600480360381019061020a9190612033565b6106c4565b005b61022b600480360381019061022691906121c5565b61076c565b60405161023891906122fb565b60405180910390f35b61025b60048036038101906102569190611cb9565b61087b565b6040516102689190611c97565b60405180910390f35b61027961091b565b005b61028361092f565b604051610290919061232c565b60405180910390f35b6102a1610959565b6040516102ae9190612363565b60405180910390f35b6102d160048036038101906102cc91906123aa565b61096c565b005b6102ed60048036038101906102e891906123ea565b610982565b6040516102fa9190611bec565b60405180910390f35b61031d6004803603810190610318919061242a565b610a16565b005b610339600480360381019061033491906124c1565b610abe565b005b61035560048036038101906103509190611ce6565b610b44565b005b600080600083815260200190815260200160002060008473ffffffffffffffffffffffffffffffffffffffff1673ffffffffffffffffffffffffffffffffffffffff16815260200190815260200160002054905092915050565b60007fd9b67a26000000000000000000000000000000000000000000000000000000007bffffffffffffffffffffffffffffffffffffffffffffffffffffffff1916827bffffffffffffffffffffffffffffffffffffffffffffffffffffffff1916148061047c57507f0e89341c000000000000000000000000000000000000000000000000000000007bffffffffffffffffffffffffffffffffffffffffffffffffffffffff1916827bffffffffffffffffffffffffffffffffffffffffffffffffffffffff1916145b8061048c575061048b82610ba8565b5b9050919050565b600480546104a09061251d565b80601f01602080910402602001604051908101604052809291908181526020018280546104cc9061251d565b80156105195780601f106104ee57610100808354040283529160200191610519565b820191906000526020600020905b8154815290600101906020018083116104fc57829003601f168201915b505050505081565b60606006600083815260200190815260200160002080546105419061251d565b80601f016020809104026020016040519081016040528092919081815260200182805461056d9061251d565b80156105ba5780601f1061058f576101008083540402835291602001916105ba565b820191906000526020600020905b81548152906001019060200180831161059d57829003601f168201915b50505050509050919050565b6105ce610c12565b6000821180156105df575060038211155b61061e576040517f08c379a00000000000000000000000000000000000000000000000000000000081526004016106159061259a565b60405180910390fd5b61063983838360405180602001604052806000815250610c99565b505050565b6000821180156106605750600560009054906101000a900460ff1660ff168211155b61069f576040517f08c379a00000000000000000000000000000000000000000000000000000000081526004016106969061259a565b60405180910390fd5b806006600084815260200190815260200160002090816106bf9190612766565b505050565b60006106ce610d32565b90508073ffffffffffffffffffffffffffffffffffffffff168673ffffffffffffffffffffffffffffffffffffffff161415801561071357506107118682610982565b155b156107575780866040517fe237d92200000000000000000000000000000000000000000000000000000000815260040161074e929190612838565b60405180910390fd5b6107648686868686610d3a565b505050505050565b606081518351146107b857815183516040517f5b0599910000000000000000000000000000000000000000000000000000000081526004016107af929190612861565b60405180910390fd5b6000835167ffffffffffffffff8111156107d5576107d4611d43565b5b6040519080825280602002602001820160405280156108035781602001602082028036833780820191505090505b50905060005b8451811015610870576108406108288287610e3290919063ffffffff16565b61083b8387610e4690919063ffffffff16565b610357565b8282815181106108535761085261288a565b5b60200260200101818152505080610869906128e8565b9050610809565b508091505092915050565b6006602052806000526040600020600091509050805461089a9061251d565b80601f01602080910402602001604051908101604052809291908181526020018280546108c69061251d565b80156109135780601f106108e857610100808354040283529160200191610913565b820191906000526020600020905b8154815290600101906020018083116108f657829003601f168201915b505050505081565b610923610c12565b61092d6000610e5a565b565b6000600360009054906101000a900473ffffffffffffffffffffffffffffffffffffffff16905090565b600560009054906101000a900460ff1681565b61097e610977610d32565b8383610f20565b5050565b6000600160008473ffffffffffffffffffffffffffffffffffffffff1673ffffffffffffffffffffffffffffffffffffffff16815260200190815260200160002060008373ffffffffffffffffffffffffffffffffffffffff1673ffffffffffffffffffffffffffffffffffffffff16815260200190815260200160002060009054906101000a900460ff16905092915050565b6000610a20610d32565b90508073ffffffffffffffffffffffffffffffffffffffff168673ffffffffffffffffffffffffffffffffffffffff1614158015610a655750610a638682610982565b155b15610aa95780866040517fe237d922000000000000000000000000000000000000000000000000000000008152600401610aa0929190612838565b60405180910390fd5b610ab68686868686611090565b505050505050565b610ac6610c12565b600073ffffffffffffffffffffffffffffffffffffffff168173ffffffffffffffffffffffffffffffffffffffff1603610b385760006040517f1e4fbdf7000000000000000000000000000000000000000000000000000000008152600401610b2f919061232c565b60405180910390fd5b610b4181610e5a565b50565b610b4c610c12565b80610b578484610357565b1015610b98576040517f08c379a0000000000000000000000000000000000000000000000000000000008152600401610b8f9061297c565b60405180910390fd5b610ba383838361119b565b505050565b60007f01ffc9a7000000000000000000000000000000000000000000000000000000007bffffffffffffffffffffffffffffffffffffffffffffffffffffffff1916827bffffffffffffffffffffffffffffffffffffffffffffffffffffffff1916149050919050565b610c1a610d32565b73ffffffffffffffffffffffffffffffffffffffff16610c3861092f565b73ffffffffffffffffffffffffffffffffffffffff1614610c9757610c5b610d32565b6040517f118cdaa7000000000000000000000000000000000000000000000000000000008152600401610c8e919061232c565b60405180910390fd5b565b600073ffffffffffffffffffffffffffffffffffffffff168473ffffffffffffffffffffffffffffffffffffffff1603610d0b5760006040517f57f447ce000000000000000000000000000000000000000000000000000000008152600401610d02919061232c565b60405180910390fd5b600080610d188585611242565b91509150610d2a600087848487611272565b505050505050565b600033905090565b600073ffffffffffffffffffffffffffffffffffffffff168473ffffffffffffffffffffffffffffffffffffffff1603610dac5760006040517f57f447ce000000000000000000000000000000000000000000000000000000008152600401610da3919061232c565b60405180910390fd5b600073ffffffffffffffffffffffffffffffffffffffff168573ffffffffffffffffffffffffffffffffffffffff1603610e1e5760006040517f01a83514000000000000000000000000000000000000000000000000000000008152600401610e15919061232c565b60405180910390fd5b610e2b8585858585611272565b5050505050565b600060208202602084010151905092915050565b600060208202602084010151905092915050565b6000600360009054906101000a900473ffffffffffffffffffffffffffffffffffffffff16905081600360006101000a81548173ffffffffffffffffffffffffffffffffffffffff021916908373ffffffffffffffffffffffffffffffffffffffff1602179055508173ffffffffffffffffffffffffffffffffffffffff168173ffffffffffffffffffffffffffffffffffffffff167f8be0079c531659141344cd1fd0a4f28419497f9722a3daafe3b4186f6b6457e060405160405180910390a35050565b600073ffffffffffffffffffffffffffffffffffffffff168273ffffffffffffffffffffffffffffffffffffffff1603610f925760006040517fced3e100000000000000000000000000000000000000000000000000000000008152600401610f89919061232c565b60405180910390fd5b80600160008573ffffffffffffffffffffffffffffffffffffffff1673ffffffffffffffffffffffffffffffffffffffff16815260200190815260200160002060008473ffffffffffffffffffffffffffffffffffffffff1673ffffffffffffffffffffffffffffffffffffffff16815260200190815260200160002060006101000a81548160ff0219169083151502179055508173ffffffffffffffffffffffffffffffffffffffff168373ffffffffffffffffffffffffffffffffffffffff167f17307eab39ab6107e8899845ad3d59bd9653f200f220920489ca2b5937696c31836040516110839190611bec565b60405180910390a3505050565b600073ffffffffffffffffffffffffffffffffffffffff168473ffffffffffffffffffffffffffffffffffffffff16036111025760006040517f57f447ce0000000000000000000000000000000000000000000000000000000081526004016110f9919061232c565b60405180910390fd5b600073ffffffffffffffffffffffffffffffffffffffff168573ffffffffffffffffffffffffffffffffffffffff16036111745760006040517f01a8351400000000000000000000000000000000000000000000000000000000815260040161116b919061232c565b60405180910390fd5b6000806111818585611242565b915091506111928787848487611272565b50505050505050565b600073ffffffffffffffffffffffffffffffffffffffff168373ffffffffffffffffffffffffffffffffffffffff160361120d5760006040517f01a83514000000000000000000000000000000000000000000000000000000008152600401611204919061232c565b60405180910390fd5b60008061121a8484611242565b9150915061123b856000848460405180602001604052806000815250611272565b5050505050565b60608060405191506001825283602083015260408201905060018152826020820152604081016040529250929050565b61127e85858585611324565b600073ffffffffffffffffffffffffffffffffffffffff168473ffffffffffffffffffffffffffffffffffffffff161461131d5760006112bc610d32565b9050600184510361130c5760006112dd600086610e4690919063ffffffff16565b905060006112f5600086610e4690919063ffffffff16565b90506113058389898585896116d2565b505061131b565b61131a818787878787611886565b5b505b5050505050565b805182511461136e57815181516040517f5b059991000000000000000000000000000000000000000000000000000000008152600401611365929190612861565b60405180910390fd5b6000611378610d32565b905060005b835181101561158d57600061139b8286610e4690919063ffffffff16565b905060006113b28386610e4690919063ffffffff16565b9050600073ffffffffffffffffffffffffffffffffffffffff168873ffffffffffffffffffffffffffffffffffffffff16146114df57600080600084815260200190815260200160002060008a73ffffffffffffffffffffffffffffffffffffffff1673ffffffffffffffffffffffffffffffffffffffff1681526020019081526020016000205490508181101561148757888183856040517f03dee4c500000000000000000000000000000000000000000000000000000000815260040161147e949392919061299c565b60405180910390fd5b81810360008085815260200190815260200160002060008b73ffffffffffffffffffffffffffffffffffffffff1673ffffffffffffffffffffffffffffffffffffffff16815260200190815260200160002081905550505b600073ffffffffffffffffffffffffffffffffffffffff168773ffffffffffffffffffffffffffffffffffffffff161461157a578060008084815260200190815260200160002060008973ffffffffffffffffffffffffffffffffffffffff1673ffffffffffffffffffffffffffffffffffffffff168152602001908152602001600020600082825461157291906129e1565b925050819055505b505080611586906128e8565b905061137d565b50600183510361164c5760006115ad600085610e4690919063ffffffff16565b905060006115c5600085610e4690919063ffffffff16565b90508573ffffffffffffffffffffffffffffffffffffffff168773ffffffffffffffffffffffffffffffffffffffff168473ffffffffffffffffffffffffffffffffffffffff167fc3d58168c5ae7397731d063d5bbf3d657854427343f4c083240f7aacaa2d0f62858560405161163d929190612861565b60405180910390a450506116cb565b8373ffffffffffffffffffffffffffffffffffffffff168573ffffffffffffffffffffffffffffffffffffffff168273ffffffffffffffffffffffffffffffffffffffff167f4a39dc06d4c0dbc64b70af90fd698a233a518aa5d07e595d983b8c0526c8f7fb86866040516116c2929190612a15565b60405180910390a45b5050505050565b60008473ffffffffffffffffffffffffffffffffffffffff163b111561187e578373ffffffffffffffffffffffffffffffffffffffff1663f23a6e6187878686866040518663ffffffff1660e01b8152600401611733959493929190612aa1565b6020604051808303816000875af192505050801561176f57506040513d601f19601f8201168201806040525081019061176c9190612b10565b60015b6117f3573d806000811461179f576040519150601f19603f3d011682016040523d82523d6000602084013e6117a4565b606091505b5060008151036117eb57846040517f57f447ce0000000000000000000000000000000000000000000000000000000081526004016117e2919061232c565b60405180910390fd5b805181602001fd5b63f23a6e6160e01b7bffffffffffffffffffffffffffffffffffffffffffffffffffffffff1916817bffffffffffffffffffffffffffffffffffffffffffffffffffffffff19161461187c57846040517f57f447ce000000000000000000000000000000000000000000000000000000008152600401611873919061232c565b60405180910390fd5b505b505050505050565b60008473ffffffffffffffffffffffffffffffffffffffff163b1115611a32578373ffffffffffffffffffffffffffffffffffffffff1663bc197c8187878686866040518663ffffffff1660e01b81526004016118e7959493929190612b3d565b6020604051808303816000875af192505050801561192357506040513d601f19601f820116820180604052508101906119209190612b10565b60015b6119a7573d8060008114611953576040519150601f19603f3d011682016040523d82523d6000602084013e611958565b606091505b50600081510361199f57846040517f57f447ce000000000000000000000000000000000000000000000000000000008152600401611996919061232c565b60405180910390fd5b805181602001fd5b63bc197c8160e01b7bffffffffffffffffffffffffffffffffffffffffffffffffffffffff1916817bffffffffffffffffffffffffffffffffffffffffffffffffffffffff191614611a3057846040517f57f447ce000000000000000000000000000000000000000000000000000000008152600401611a27919061232c565b60405180910390fd5b505b505050505050565b6000604051905090565b600080fd5b600080fd5b600073ffffffffffffffffffffffffffffffffffffffff82169050919050565b6000611a7982611a4e565b9050919050565b611a8981611a6e565b8114611a9457600080fd5b50565b600081359050611aa681611a80565b92915050565b6000819050919050565b611abf81611aac565b8114611aca57600080fd5b50565b600081359050611adc81611ab6565b92915050565b60008060408385031215611af957611af8611a44565b5b6000611b0785828601611a97565b9250506020611b1885828601611acd565b9150509250929050565b611b2b81611aac565b82525050565b6000602082019050611b466000830184611b22565b92915050565b60007fffffffff0000000000000000000000000000000000000000000000000000000082169050919050565b611b8181611b4c565b8114611b8c57600080fd5b50565b600081359050611b9e81611b78565b92915050565b600060208284031215611bba57611bb9611a44565b5b6000611bc884828501611b8f565b91505092915050565b60008115159050919050565b611be681611bd1565b82525050565b6000602082019050611c016000830184611bdd565b92915050565b600081519050919050565b600082825260208201905092915050565b60005b83811015611c41578082015181840152602081019050611c26565b60008484015250505050565b6000601f19601f8301169050919050565b6000611c6982611c07565b611c738185611c12565b9350611c83818560208601611c23565b611c8c81611c4d565b840191505092915050565b60006020820190508181036000830152611cb18184611c5e565b905092915050565b600060208284031215611ccf57611cce611a44565b5b6000611cdd84828501611acd565b91505092915050565b600080600060608486031215611cff57611cfe611a44565b5b6000611d0d86828701611a97565b9350506020611d1e86828701611acd565b9250506040611d2f86828701611acd565b9150509250925092565b600080fd5b600080fd5b7f4e487b7100000000000000000000000000000000000000000000000000000000600052604160045260246000fd5b611d7b82611c4d565b810181811067ffffffffffffffff82111715611d9a57611d99611d43565b5b80604052505050565b6000611dad611a3a565b9050611db98282611d72565b919050565b600067ffffffffffffffff821115611dd957611dd8611d43565b5b611de282611c4d565b9050602081019050919050565b82818337600083830152505050565b6000611e11611e0c84611dbe565b611da3565b905082815260208101848484011115611e2d57611e2c611d3e565b5b611e38848285611def565b509392505050565b600082601f830112611e5557611e54611d39565b5b8135611e65848260208601611dfe565b91505092915050565b60008060408385031215611e8557611e84611a44565b5b6000611e9385828601611acd565b925050602083013567ffffffffffffffff811115611eb457611eb3611a49565b5b611ec085828601611e40565b9150509250929050565b600067ffffffffffffffff821115611ee557611ee4611d43565b5b602082029050602081019050919050565b600080fd5b6000611f0e611f0984611eca565b611da3565b90508083825260208201905060208402830185811115611f3157611f30611ef6565b5b835b81811015611f5a5780611f468882611acd565b845260208401935050602081019050611f33565b5050509392505050565b600082601f830112611f7957611f78611d39565b5b8135611f89848260208601611efb565b91505092915050565b600067ffffffffffffffff821115611fad57611fac611d43565b5b611fb682611c4d565b9050602081019050919050565b6000611fd6611fd184611f92565b611da3565b905082815260208101848484011115611ff257611ff1611d3e565b5b611ffd848285611def565b509392505050565b600082601f83011261201a57612019611d39565b5b813561202a848260208601611fc3565b91505092915050565b600080600080600060a0868803121561204f5761204e611a44565b5b600061205d88828901611a97565b955050602061206e88828901611a97565b945050604086013567ffffffffffffffff81111561208f5761208e611a49565b5b61209b88828901611f64565b935050606086013567ffffffffffffffff8111156120bc576120bb611a49565b5b6120c888828901611f64565b925050608086013567ffffffffffffffff8111156120e9576120e8611a49565b5b6120f588828901612005565b9150509295509295909350565b600067ffffffffffffffff82111561211d5761211c611d43565b5b602082029050602081019050919050565b600061214161213c84612102565b611da3565b9050808382526020820190506020840283018581111561216457612163611ef6565b5b835b8181101561218d57806121798882611a97565b845260208401935050602081019050612166565b5050509392505050565b600082601f8301126121ac576121ab611d39565b5b81356121bc84826020860161212e565b91505092915050565b600080604083850312156121dc576121db611a44565b5b600083013567ffffffffffffffff8111156121fa576121f9611a49565b5b61220685828601612197565b925050602083013567ffffffffffffffff81111561222757612226611a49565b5b61223385828601611f64565b9150509250929050565b600081519050919050565b600082825260208201905092915050565b6000819050602082019050919050565b61227281611aac565b82525050565b60006122848383612269565b60208301905092915050565b6000602082019050919050565b60006122a88261223d565b6122b28185612248565b93506122bd83612259565b8060005b838110156122ee5781516122d58882612278565b97506122e083612290565b9250506001810190506122c1565b5085935050505092915050565b60006020820190508181036000830152612315818461229d565b905092915050565b61232681611a6e565b82525050565b6000602082019050612341600083018461231d565b92915050565b600060ff82169050919050565b61235d81612347565b82525050565b60006020820190506123786000830184612354565b92915050565b61238781611bd1565b811461239257600080fd5b50565b6000813590506123a48161237e565b92915050565b600080604083850312156123c1576123c0611a44565b5b60006123cf85828601611a97565b92505060206123e085828601612395565b9150509250929050565b6000806040838503121561240157612400611a44565b5b600061240f85828601611a97565b925050602061242085828601611a97565b9150509250929050565b600080600080600060a0868803121561244657612445611a44565b5b600061245488828901611a97565b955050602061246588828901611a97565b945050604061247688828901611acd565b935050606061248788828901611acd565b925050608086013567ffffffffffffffff8111156124a8576124a7611a49565b5b6124b488828901612005565b9150509295509295909350565b6000602082840312156124d7576124d6611a44565b5b60006124e584828501611a97565b91505092915050565b7f4e487b7100000000000000000000000000000000000000000000000000000000600052602260045260246000fd5b6000600282049050600182168061253557607f821691505b602082108103612548576125476124ee565b5b50919050565b7f496e76616c696420706173732074797065000000000000000000000000000000600082015250565b6000612584601183611c12565b915061258f8261254e565b602082019050919050565b600060208201905081810360008301526125b381612577565b9050919050565b60008190508160005260206000209050919050565b60006020601f8301049050919050565b600082821b905092915050565b60006008830261261c7fffffffffffffffffffffffffffffffffffffffffffffffffffffffffffffffff826125df565b61262686836125df565b95508019841693508086168417925050509392505050565b6000819050919050565b600061266361265e61265984611aac565b61263e565b611aac565b9050919050565b6000819050919050565b61267d83612648565b6126916126898261266a565b8484546125ec565b825550505050565b600090565b6126a6612699565b6126b1818484612674565b505050565b5b818110156126d5576126ca60008261269e565b6001810190506126b7565b5050565b601f82111561271a576126eb816125ba565b6126f4846125cf565b81016020851015612703578190505b61271761270f856125cf565b8301826126b6565b50505b505050565b600082821c905092915050565b600061273d6000198460080261271f565b1980831691505092915050565b6000612756838361272c565b9150826002028217905092915050565b61276f82611c07565b67ffffffffffffffff81111561278857612787611d43565b5b612792825461251d565b61279d8282856126d9565b600060209050601f8311600181146127d057600084156127be578287015190505b6127c8858261274a565b865550612830565b601f1984166127de866125ba565b60005b82811015612806578489015182556001820191506020850194506020810190506127e1565b86831015612823578489015161281f601f89168261272c565b8355505b6001600288020188555050505b505050505050565b600060408201905061284d600083018561231d565b61285a602083018461231d565b9392505050565b60006040820190506128766000830185611b22565b6128836020830184611b22565b9392505050565b7f4e487b7100000000000000000000000000000000000000000000000000000000600052603260045260246000fd5b7f4e487b7100000000000000000000000000000000000000000000000000000000600052601160045260246000fd5b60006128f382611aac565b91507fffffffffffffffffffffffffffffffffffffffffffffffffffffffffffffffff8203612925576129246128b9565b5b600182019050919050565b7f496e73756666696369656e742062616c616e636520666f72206275726e000000600082015250565b6000612966601d83611c12565b915061297182612930565b602082019050919050565b6000602082019050818103600083015261299581612959565b9050919050565b60006080820190506129b1600083018761231d565b6129be6020830186611b22565b6129cb6040830185611b22565b6129d86060830184611b22565b95945050505050565b60006129ec82611aac565b91506129f783611aac565b9250828201905080821115612a0f57612a0e6128b9565b5b92915050565b60006040820190508181036000830152612a2f818561229d565b90508181036020830152612a43818461229d565b90509392505050565b600081519050919050565b600082825260208201905092915050565b6000612a7382612a4c565b612a7d8185612a57565b9350612a8d818560208601611c23565b612a9681611c4d565b840191505092915050565b600060a082019050612ab6600083018861231d565b612ac3602083018761231d565b612ad06040830186611b22565b612add6060830185611b22565b8181036080830152612aef8184612a68565b90509695505050505050565b600081519050612b0a81611b78565b92915050565b600060208284031215612b2657612b25611a44565b5b6000612b3484828501612afb565b91505092915050565b600060a082019050612b52600083018861231d565b612b5f602083018761231d565b8181036040830152612b71818661229d565b90508181036060830152612b85818561229d565b90508181036080830152612b998184612a68565b9050969550505050505056fea26469706673582212206a70081dee59a2cff649bf35f01cac3ed91d12fbdceb764a0abe085382a44eb164736f6c63430008140033",
  "linkReferences": {},
  "deployedLinkReferences": {}
}